:100000000C9402010C941F010C941F010C941F010D
:100010000C941F010C941F010C941F010C941F01E0
:100020000C941F010C941F010C941F010C941F01D0
:100030000C941F010C941F010C941F010C941F01C0
:100040000C941F010C941F010C941F010C941F01B0
:100050000C941F010C941F010C941F010C941F01A0
:100060000C941F010C941F010C941F010C941F0190
:100070000C941F010C941F010C941F010C941F0180
:100080000C941F010C941F010C941F010C941F0170
:100090000C941F010C941F010C941F010C941F0160
:1000A0000C941F010C941F010C941F010C941F0150
:1000B0000C941F0113051A051A051A051A051A05CD
:1000C0001A051A051A051A051A051A051A051A0538
:1000D0001A051A051A051A051A051A051A051A0528
:1000E0001A051A051A051A051A051A051A05ED0446
:1000F000650488041A05FD041A051A051A051A056F
:100100001A051A051A051A051A051A051A051A05F7
:1001100008051A05B3041A051A05CF041A051A05AD
:100120001A051A051A051A051A051A051A05DD0415
:10013000650470041A05FD041A051A051A051A0546
:100140001A051A051A051A051A051A051A051A05B7
:1001500008051A05A5041A051A05C10413051A0590
:100160001A051A051A051A051A051A051A051A0597
:100170001A051A051A051A051A051A051A051A0587
:100180001A051A051A051A051A051A051A051A0577
:100190001A051A051A052405650487041A05FD04C5
:1001A0001A051A051A051A051A051A051A051A0557
:1001B0001A051A051A051A0508051A05B2041A05C2
:1001C0001A05CE041A051A051A051A051A051A0584
:1001D0001A051A051A05DC0465046F041A05FD04E6
:1001E0001A051A051A051A051A051A051A051A0517
:1001F0001A051A051A051A0508051A05A4041A0590
:100200001A05C00411241FBECFEFD8E0DEBFCDBF5A
:1002100012E0A0E0B1E0E6E1FEE002C005900D9240
:10022000A63FB107D9F722E0A6EFB2E001C01D92C8
:10023000AB3FB207E1F70E94DC010C9409070C9474
:1002400000008EBD0DB407FEFDCF8EB50895CF938F
:10025000DF93C82F2A988BE00E9421018C2F0E94E7
:10026000210180E00E942101C82FD0E080E00E949F
:1002700021012A9A90E0982F88278C0F9D1FDF91EB
:10028000CF9108958130910549F08230910551F068
:10029000892B61F48EE00E942701089580E10E947D
:1002A0002701089582E10E942701089582E10E94BA
:1002B00027010895CF93DF93D82FC62F2A988AE07D
:1002C0000E9421018D2F0E9421018C2F0E9421016B
:1002D0002A9ADF91CF9108951AB88CE084B980E50D
:1002E0008CBD2A9A62E58FE10E945A010895E9EBDC
:1002F000F0E080818C7F808388E38093B80008954C
:100300008093F602ECEBF0E08081846A8083808148
:100310008823ECF78091B900887F883021F0803104
:1003200011F08EEF08958FEF0895880F9091F602E7
:10033000892B8093BB00ECEBF0E080818F7D808384
:1003400080818068808380818823ECF78091F60229
:10035000811107C08091B900887F883159F08EEFF4
:100360000895813049F48091B900887F803431F05C
:100370008EEF08958FEF089580E008958FEF089530
:100380008093BB00ECEBF0E080818068808380810B
:100390008823ECF78091B900887F883211F08EEFC6
:1003A00008958FEF0895ECEBF0E080818069808301
:1003B000808184FFFDCF08950E946C010E946D0230
:1003C0000E943102EAE7F0E080818068808360E08B
:1003D00080E00E94BD0280E091E09F938F930E9495
:1003E000160462E082E00E94BD028EE091E09F93DD
:1003F0008F930E9416040F900F900F900F9080E043
:1004000090E00E9442019093F8028093F702AC01C1
:1004100060E070E02CE082E00E9435032FEF81EE77
:1004200094E0215080409040E1F700C00000E7CF09
:10043000CF93C82F80E00E9480018C2F0E949501ED
:10044000CF910895CF93C82F8CE30E94180280E0CB
:100450000E94C0018C2F0E94C0010E94D301CF9145
:100460000895CF93DF9381E20E94220280E00E94F0
:1004700022028FE70E94220282E20E94220280E092
:100480000E94220287E00E9422028CE30E9418024E
:1004900080E40E94C001C0E0D4E080E00E94C0017E
:1004A0002197D9F781E20E94220280E00E94220275
:1004B0008FE70E94220282E20E94220280E00E94D4
:1004C000220287E00E9422028CE30E94180280E44C
:1004D0000E94C001DF91CF9108950E9477018EEABA
:1004E0000E94220285ED0E94220280E80E942202E0
:1004F00088EA0E9422028FE30E94220283ED0E947A
:10050000220280E00E94220280E60E9422028DE800
:100510000E94220284E10E94220280E20E942202C2
:1005200080E00E94220281EA0E94220288EC0E945E
:1005300022028AED0E94220282E00E94220281E8C9
:100540000E9422028FE80E94220289ED0E9422026C
:1005500081EF0E9422028BED0E94220280E40E9421
:10056000220284EA0E94220286EA0E9422028FEA84
:100570000E9422020E9431020895CF93DF938830B7
:1005800000F56623F4F0D62FC82F8093F90260930C
:10059000FA0281E20E9422028D2F0E9422028FE73E
:1005A0000E94220282E20E9422028C2F0E942202DA
:1005B00087E00E9422028CE30E94180280E40E94DD
:1005C000C001DF91CF9108958091F9028F5F87700C
:1005D0008093F90260E00E94BD0208951F93CF93BB
:1005E000DF93C82F8091FA0290E00596803891053C
:1005F0001CF4CA3029F424C00E94E402CA3011F16C
:10060000C052D0E0CE01880F991F880F991FC80FE4
:10061000D91FC55EDE4F10E089910E94C001809114
:10062000FA028F5F8093FA021F5F1530A9F780E00E
:100630000E94C0018091FA028F5F8093FA0202C08B
:100640000E94E402DF91CF911F910895CF93DF9331
:10065000EC018881882331F021960E94EE02899175
:100660008111FBCFDF91CF9108954F925F926F92EE
:100670007F928F929F92AF92BF92CF92DF92EF9232
:10068000FF920F931F93CF93DF93CDB7DEB72A97D7
:100690000FB6F894DEBF0FBECDBF882E6A017B0176
:1006A000122F82E0881224C0222309F470C0AA24E9
:1006B000A394B12C01E0912C8FEF810FA50102C012
:1006C000440F551F8A95E2F7052E000C660B770B39
:1006D0004C215D216E217F21802F452B462B472BFE
:1006E00009F4892D805D0E94EE02115029F74FC058
:1006F000452B462B472B19F021110FC048C0222350
:1007000009F445C000E080E30E94EE020F5F10177D
:1007100009F43DC00A30B9F73AC0FE0131965F01D5
:1007200000E0482C512C612C712CC114D104E1043F
:10073000F10489F09C2CC701B601A30192010E942B
:10074000E106C22ED32EE42EF52E829E901811249F
:10075000F501908207C01B3018F001110AC017C0C4
:10076000F50110820F5FFFEFAF1ABF0A1013DDCF44
:1007700001C0102FFE01E10FF11D80818A3010F0C1
:10078000895C01C0805D0E94EE02115099F72A96A3
:100790000FB6F894DEBF0FBECDBFDF91CF911F9192
:1007A0000F91FF90EF90DF90CF90BF90AF909F9010
:1007B0008F907F906F905F904F9008958F929F924F
:1007C000AF92BF92CF92DF92EF92FF926B017C01CA
:1007D0000E94B7054B015C012FEFAB01BC018AE021
:1007E0000E9435038EE20E94EE02C501B4010E9410
:1007F000E6059B01AC01C701B6010E944A0520E055
:1008000034E244E759E40E9474060E94B705AB0144
:10081000BC012FEF8AE00E943503FF90EF90DF903C
:10082000CF90BF90AF909F908F9008954F925F921E
:100830006F927F928F929F92AF92BF92CF92DF92F0
:10084000EF92FF920F931F93CF93DF93CDB7DEB755
:10085000FE017396819091907F01D4018C91882341
:1008600009F407C16894AA24A4F8BB24BA9400E050
:10087000853209F0DCC06401BFEFCB1ADB0AD4017A
:100880001196EC91119780ED8E0F8A3008F0E6C03A
:100890001296102F212F220F822F880F880F280FDA
:1008A0002053122F1E0F6D01ED9180ED8E0F8A30B7
:1008B00088F38E2F90E0FC01B597E435F10508F040
:1008C000B9C0E65AFF4F0C9403074701B2E08B0E04
:1008D000911CF70180810E94EE027401ABC01B2DB8
:1008E000F70180809180F2E0EF0EF11C992034F442
:1008F0009194819491088DE20E94EE02A401990CDA
:10090000660B770B212F8AE00E94350393C01B2DC5
:10091000F701408051806280738024E0E20EF11C78
:1009200077205CF47094609450944094411C511C66
:10093000611C711C8DE20E94EE02212FB301A20105
:100940008AE00E94350376C01B2DF701408151815A
:1009500082E0E80EF11C60E070E0212F8AE00E9446
:10096000350368C01B2DF70140815181628173817D
:10097000A4E0EA0EF11C212F8AE00E9435035AC040
:100980001B2DF70140815181B2E0EB0EF11C60E0BC
:1009900070E0212F8A2D0E9435034CC01B2DF701DA
:1009A0004081518162817381E4E0EE0EF11C212FC0
:1009B0008A2D0E9435033EC01B2DF70140815181D5
:1009C000F2E0EF0EF11C1F3F09F41A2D60E070E019
:1009D000212F82E00E9435032DC0F7014081518113
:1009E0006281738124E0E20EF11C1F3F09F41A2D8D
:1009F000212F82E00E9435031DC0F70160817181C3
:100A000082819381A4E0EA0EF11C0E94DE0312C0F1
:100A10004701B2E08B0E911CF701808191810E9409
:100A20002603740107C085E20E94EE0203C00E9403
:100A3000EE0264014601FFEF8F1A9F0AD60111965C
:100A40008C91811115CF15C0F701408151816281D0
:100A50007381B4E0EB0EF11C1A2DCACF8E2F90E0FB
:100A6000FC01B597E435F10528F7E255FF4F0C94EA
:100A70000307DF91CF911F910F91FF90EF90DF90CF
:100A8000CF90BF90AF909F908F907F906F905F902E
:100A90004F9008955058BB27AA270E9462050C94D6
:100AA0003A060E942C0638F00E94330620F039F4F2
:100AB0009F3F19F426F40C9429060EF4E095E7FB09
:100AC0000C942306E92F0E944B0658F3BA176207CD
:100AD00073078407950720F079F4A6F50C946D064A
:100AE0000EF4E0950B2EBA2FA02D0B01B901900149
:100AF0000C01CA01A0011124FF27591B99F0593F8D
:100B000050F4503E68F11A16F040A22F232F342FD4
:100B10004427585FF3CF469537952795A795F04022
:100B20005395C9F77EF41F16BA0B620B730B840B37
:100B3000BAF09150A1F0FF0FBB1F661F771F881FEF
:100B4000C2F70EC0BA0F621F731F841F48F4879547
:100B500077956795B795F7959E3F08F0B0CF939539
:100B6000880F08F09927EE0F9795879508950E94B2
:100B7000530688F09F5798F0B92F9927B751B0F0D6
:100B8000E1F0660F771F881F991F1AF0BA95C9F711
:100B900014C0B13091F00E946D06B1E008950C943C
:100BA0006D06672F782F8827B85F39F0B93FCCF3EF
:100BB000869577956795B395D9F73EF4909580958E
:100BC000709561957F4F8F4F9F4F0895E89409C0AE
:100BD00097FB3EF490958095709561957F4F8F4F70
:100BE0009F4F9923A9F0F92F96E9BB279395F69586
:100BF000879577956795B795F111F8CFFAF4BB0F04
:100C000011F460FF1BC06F5F7F4F8F4F9F4F16C067
:100C1000882311F096E911C0772321F09EE8872FF1
:100C2000762F05C0662371F096E8862F70E060E0AD
:100C30002AF09A95660F771F881FDAF7880F969526
:100C4000879597F9089597F99F6780E870E060E0CD
:100C500008959FEF80EC089500240A941616170655
:100C600018060906089500240A941216130614069D
:100C700005060895092E0394000C11F4882352F000
:100C8000BB0F40F4BF2B11F460FF04C06F5F7F4FB8
:100C90008F4F9F4F089557FD9058440F551F59F09F
:100CA0005F3F71F04795880F97FB991F61F09F3F59
:100CB00079F087950895121613061406551FF2CF82
:100CC0004695F1DF08C0161617061806991FF1CFD2
:100CD00086957105610508940895E894BB276627F9
:100CE0007727CB0197F908950E9487060C943A065E
:100CF0000E942C0638F00E94330620F0952311F054
:100D00000C9423060C94290611240C946E060E9460
:100D10004B0670F3959FC1F3950F50E0551F629FEE
:100D2000F001729FBB27F00DB11D639FAA27F00D44
:100D3000B11DAA1F649F6627B00DA11D661F829F6B
:100D40002227B00DA11D621F739FB00DA11D621F50
:100D5000839FA00D611D221F749F3327A00D611D6D
:100D6000231F849F600D211D822F762F6A2F11244F
:100D70009F5750409AF0F1F088234AF0EE0FFF1F82
:100D8000BB1F661F771F881F91505040A9F79E3FD9
:100D9000510580F00C9423060C946E065F3FE4F33B
:100DA000983ED4F3869577956795B795F795E7952F
:100DB0009F5FC1F7FE2B880F911D9695879597F938
:100DC0000895A1E21A2EAA1BBB1BFD010DC0AA1F8C
:100DD000BB1FEE1FFF1FA217B307E407F50720F0A4
:100DE000A21BB30BE40BF50B661F771F881F991F1F
:100DF0001A9469F760957095809590959B01AC0168
:100E0000BD01CF010895EE0FFF1F0590F491E02D75
:060E10000994F894FFCFE5
:100E1600333838205065646F6D657465720053749D
:100E26006570732054616B656E3A00000000000027
:100E360000002F00000007000700147F147F142411
:100E46002A7F2A1223130864623649552250000568
:100E5600030000001C2241000041221C0014083E31
:100E6600081408083E08080000A0600008080808E2
:100E760008006060000020100804023E5149453E0B
:100E860000427F400042615149462141454B31189D
:100E960014127F1027454545393C4A4949300171AE
:100EA6000905033649494936064949291E00363699
:100EB60000000056360000081422410014141414D1
:100EC6001400412214080201510906324959513EC3
:100ED6007C1211127C7F494949363E414141227FAD
:100EE6004141221C7F494949417F090909013E4187
:100EF60049497A7F0808087F00417F410020404128
:100F06003F017F081422417F404040407F020C028F
:100F16007F7F0408107F3E4141413E7F0909090653
:100F26003E4151215E7F0919294646494949310109
:100F3600017F01013F4040403F1F2040201F3F40AE
:100F460038403F6314081463070870080761514965
:100F56004543007F41410055AA55AA550041417FAE
:100F66000004020102044040404040000305000026
:100F760020545454787F48444438384444442038F4
:100F86004444487F3854545418087E09010218A472
:100F9600A4A47C7F0804047800447D40004080843B
:100FA6007D007F1028440000417F40007C04180427
:100FB600787C080404783844444438FC24242418F3
:100FC60018242418FC7C08040408485454542004AB
:100FD6003F4440203C4040207C1C2040201C3C409C
:100FE60030403C44281028441CA0A0A07C446454F3
:100FF6004C4400107C82000000FF000000827C1040
:06100600000006090906C6
:00000001FF
